{
  "contractName": "Donation",
  "abi": [
    {
      "inputs": [],
      "payable": true,
      "stateMutability": "payable",
      "type": "constructor"
    },
    {
      "constant": true,
      "inputs": [
        {
          "internalType": "address",
          "name": "",
          "type": "address"
        }
      ],
      "name": "amounts",
      "outputs": [
        {
          "internalType": "uint256",
          "name": "",
          "type": "uint256"
        }
      ],
      "payable": false,
      "stateMutability": "view",
      "type": "function"
    },
    {
      "constant": true,
      "inputs": [
        {
          "internalType": "address",
          "name": "",
          "type": "address"
        }
      ],
      "name": "donations",
      "outputs": [
        {
          "internalType": "uint256",
          "name": "",
          "type": "uint256"
        }
      ],
      "payable": false,
      "stateMutability": "view",
      "type": "function"
    },
    {
      "constant": true,
      "inputs": [],
      "name": "owner",
      "outputs": [
        {
          "internalType": "address payable",
          "name": "",
          "type": "address"
        }
      ],
      "payable": false,
      "stateMutability": "view",
      "type": "function"
    },
    {
      "constant": true,
      "inputs": [],
      "name": "totalDonate",
      "outputs": [
        {
          "internalType": "uint256",
          "name": "",
          "type": "uint256"
        }
      ],
      "payable": false,
      "stateMutability": "view",
      "type": "function"
    },
    {
      "constant": true,
      "inputs": [],
      "name": "checkOwner",
      "outputs": [
        {
          "internalType": "bool",
          "name": "",
          "type": "bool"
        }
      ],
      "payable": false,
      "stateMutability": "view",
      "type": "function"
    },
    {
      "constant": false,
      "inputs": [
        {
          "internalType": "uint256",
          "name": "_amount",
          "type": "uint256"
        }
      ],
      "name": "donate",
      "outputs": [],
      "payable": true,
      "stateMutability": "payable",
      "type": "function"
    },
    {
      "constant": true,
      "inputs": [],
      "name": "getDonations",
      "outputs": [
        {
          "internalType": "uint256",
          "name": "",
          "type": "uint256"
        }
      ],
      "payable": false,
      "stateMutability": "view",
      "type": "function"
    },
    {
      "constant": true,
      "inputs": [],
      "name": "getTotalDonations",
      "outputs": [
        {
          "internalType": "uint256",
          "name": "",
          "type": "uint256"
        }
      ],
      "payable": false,
      "stateMutability": "view",
      "type": "function"
    },
    {
      "constant": true,
      "inputs": [],
      "name": "getMonthlyDonation",
      "outputs": [
        {
          "internalType": "uint256",
          "name": "",
          "type": "uint256"
        }
      ],
      "payable": false,
      "stateMutability": "view",
      "type": "function"
    },
    {
      "constant": false,
      "inputs": [],
      "name": "claimDonate",
      "outputs": [
        {
          "internalType": "bool",
          "name": "",
          "type": "bool"
        }
      ],
      "payable": true,
      "stateMutability": "payable",
      "type": "function"
    }
  ],
  "bytecode": "0x6080604052336000806101000a81548173ffffffffffffffffffffffffffffffffffffffff021916908373ffffffffffffffffffffffffffffffffffffffff16021790555034600360008060009054906101000a900473ffffffffffffffffffffffffffffffffffffffff1673ffffffffffffffffffffffffffffffffffffffff1673ffffffffffffffffffffffffffffffffffffffff168152602001908152602001600020819055506105c8806100b86000396000f3fe6080604052600436106100915760003560e01c8063cc6cb19a11610059578063cc6cb19a146101ca578063cdbce03d1461022f578063e25f84161461025e578063f14faf6f14610289578063fae25e0e146102b757610091565b806322402c251461009657806355a3b2c1146100c1578063777c658f146101265780638161b677146101515780638da5cb5b14610173575b600080fd5b3480156100a257600080fd5b506100ab6102e2565b6040518082815260200191505060405180910390f35b3480156100cd57600080fd5b50610110600480360360208110156100e457600080fd5b81019080803573ffffffffffffffffffffffffffffffffffffffff1690602001909291905050506102ef565b6040518082815260200191505060405180910390f35b34801561013257600080fd5b5061013b610307565b6040518082815260200191505060405180910390f35b610159610311565b604051808215151515815260200191505060405180910390f35b34801561017f57600080fd5b5061018861040c565b604051808273ffffffffffffffffffffffffffffffffffffffff1673ffffffffffffffffffffffffffffffffffffffff16815260200191505060405180910390f35b3480156101d657600080fd5b50610219600480360360208110156101ed57600080fd5b81019080803573ffffffffffffffffffffffffffffffffffffffff169060200190929190505050610431565b6040518082815260200191505060405180910390f35b34801561023b57600080fd5b50610244610449565b604051808215151515815260200191505060405180910390f35b34801561026a57600080fd5b506102736104ab565b6040518082815260200191505060405180910390f35b6102b56004803603602081101561029f57600080fd5b81019080803590602001909291905050506104f2565b005b3480156102c357600080fd5b506102cc61056a565b6040518082815260200191505060405180910390f35b6000804790508091505090565b60036020528060005260406000206000915090505481565b6000600154905090565b60008060009054906101000a900473ffffffffffffffffffffffffffffffffffffffff1673ffffffffffffffffffffffffffffffffffffffff163373ffffffffffffffffffffffffffffffffffffffff16146103b8576040517f08c379a00000000000000000000000000000000000000000000000000000000081526004018080602001828103825260238152602001806105716023913960400191505060405180910390fd5b60004790503373ffffffffffffffffffffffffffffffffffffffff166108fc829081150290604051600060405180830381858888f19350505050158015610403573d6000803e3d6000fd5b50600191505090565b6000809054906101000a900473ffffffffffffffffffffffffffffffffffffffff1681565b60026020528060005260406000206000915090505481565b60008060009054906101000a900473ffffffffffffffffffffffffffffffffffffffff1673ffffffffffffffffffffffffffffffffffffffff163373ffffffffffffffffffffffffffffffffffffffff16146104a457600080fd5b6001905090565b6000600260003373ffffffffffffffffffffffffffffffffffffffff1673ffffffffffffffffffffffffffffffffffffffff16815260200190815260200160002054905090565b80341480156105015750600034115b61050a57600080fd5b34600260003373ffffffffffffffffffffffffffffffffffffffff1673ffffffffffffffffffffffffffffffffffffffff168152602001908152602001600020600082825401925050819055503460016000828254019250508190555050565b6001548156fe596f7520646f6e27742068617665207065726d697373696f6e20746f20616363657373a265627a7a72315820cef44f878a52f6eee02188b4fd223bfd4c867eb33409235d02d2b946a35a213d64736f6c63430005100032",
  "source": "pragma solidity ^0.5.0;\n\ncontract Donation {\n    address payable public owner;\n    uint256 public totalDonate;\n    mapping(address => uint256) public donations;\n    mapping(address => uint256) public amounts;\n   \n    constructor() public payable{\n        owner = msg.sender;\n        amounts[owner] = msg.value;\n    }\n\n    function checkOwner() public view returns(bool){\n        require(msg.sender == owner);\n        return true;\n    }\n\n    function donate(uint256 _amount) public payable {\n        require(msg.value == _amount && msg.value > 0);\n        donations[msg.sender] += msg.value;\n        totalDonate += msg.value;\n    }\n\n    function getDonations() public view returns (uint256) {\n        return donations[msg.sender];\n    }\n\n    function getTotalDonations() public view returns (uint256) {\n        return totalDonate;\n    }\n\n    function getMonthlyDonation() public view returns (uint256) {\n        uint256 balance = address(this).balance;\n        return balance;\n    }\n\n    function claimDonate() public payable returns(bool){\n        require(msg.sender == owner, \"You don't have permission to access\");\n        uint256 balance = address(this).balance;\n        msg.sender.transfer(balance);\n        return true;\n    \n    }\n}",
  "sourcePath": "/Users/piriya/Desktop/Github/trade-boon-web3/contracts/Donation.sol",
  "compiler": {
    "name": "solc",
    "version": "0.5.16+commit.9c3226ce.Emscripten.clang"
  },
  "schemaVersion": "3.4.7",
  "updatedAt": "2022-05-12T08:54:19.398Z",
  "devdoc": {
    "methods": {}
  },
  "userdoc": {
    "methods": {}
  }
}